{
  "_format": "hh-sol-artifact-1",
  "contractName": "MusicLab",
  "sourceName": "contracts/MusicLab.sol",
  "abi": [
    {
      "inputs": [
        {
          "internalType": "contract MusicNFt",
          "name": "_musicnft",
          "type": "address"
        }
      ],
      "stateMutability": "nonpayable",
      "type": "constructor"
    },
    {
      "anonymous": false,
      "inputs": [
        {
          "indexed": true,
          "internalType": "address",
          "name": "owner",
          "type": "address"
        },
        {
          "indexed": true,
          "internalType": "address",
          "name": "spender",
          "type": "address"
        },
        {
          "indexed": false,
          "internalType": "uint256",
          "name": "value",
          "type": "uint256"
        }
      ],
      "name": "Approval",
      "type": "event"
    },
    {
      "anonymous": false,
      "inputs": [
        {
          "indexed": true,
          "internalType": "address",
          "name": "previousOwner",
          "type": "address"
        },
        {
          "indexed": true,
          "internalType": "address",
          "name": "newOwner",
          "type": "address"
        }
      ],
      "name": "OwnershipTransferred",
      "type": "event"
    },
    {
      "anonymous": false,
      "inputs": [
        {
          "indexed": false,
          "internalType": "address",
          "name": "account",
          "type": "address"
        }
      ],
      "name": "Paused",
      "type": "event"
    },
    {
      "anonymous": false,
      "inputs": [
        {
          "indexed": true,
          "internalType": "address",
          "name": "from",
          "type": "address"
        },
        {
          "indexed": true,
          "internalType": "address",
          "name": "to",
          "type": "address"
        },
        {
          "indexed": false,
          "internalType": "uint256",
          "name": "value",
          "type": "uint256"
        }
      ],
      "name": "Transfer",
      "type": "event"
    },
    {
      "anonymous": false,
      "inputs": [
        {
          "indexed": false,
          "internalType": "address",
          "name": "account",
          "type": "address"
        }
      ],
      "name": "Unpaused",
      "type": "event"
    },
    {
      "inputs": [
        {
          "internalType": "address",
          "name": "owner",
          "type": "address"
        },
        {
          "internalType": "address",
          "name": "spender",
          "type": "address"
        }
      ],
      "name": "allowance",
      "outputs": [
        {
          "internalType": "uint256",
          "name": "",
          "type": "uint256"
        }
      ],
      "stateMutability": "view",
      "type": "function"
    },
    {
      "inputs": [
        {
          "internalType": "address",
          "name": "spender",
          "type": "address"
        },
        {
          "internalType": "uint256",
          "name": "amount",
          "type": "uint256"
        }
      ],
      "name": "approve",
      "outputs": [
        {
          "internalType": "bool",
          "name": "",
          "type": "bool"
        }
      ],
      "stateMutability": "nonpayable",
      "type": "function"
    },
    {
      "inputs": [
        {
          "internalType": "address",
          "name": "account",
          "type": "address"
        }
      ],
      "name": "balanceOf",
      "outputs": [
        {
          "internalType": "uint256",
          "name": "",
          "type": "uint256"
        }
      ],
      "stateMutability": "view",
      "type": "function"
    },
    {
      "inputs": [
        {
          "internalType": "uint256",
          "name": "amount",
          "type": "uint256"
        }
      ],
      "name": "burn",
      "outputs": [],
      "stateMutability": "nonpayable",
      "type": "function"
    },
    {
      "inputs": [
        {
          "internalType": "address",
          "name": "account",
          "type": "address"
        },
        {
          "internalType": "uint256",
          "name": "amount",
          "type": "uint256"
        }
      ],
      "name": "burnFrom",
      "outputs": [],
      "stateMutability": "nonpayable",
      "type": "function"
    },
    {
      "inputs": [],
      "name": "decimals",
      "outputs": [
        {
          "internalType": "uint8",
          "name": "",
          "type": "uint8"
        }
      ],
      "stateMutability": "view",
      "type": "function"
    },
    {
      "inputs": [
        {
          "internalType": "address",
          "name": "spender",
          "type": "address"
        },
        {
          "internalType": "uint256",
          "name": "subtractedValue",
          "type": "uint256"
        }
      ],
      "name": "decreaseAllowance",
      "outputs": [
        {
          "internalType": "bool",
          "name": "",
          "type": "bool"
        }
      ],
      "stateMutability": "nonpayable",
      "type": "function"
    },
    {
      "inputs": [
        {
          "internalType": "address",
          "name": "spender",
          "type": "address"
        },
        {
          "internalType": "uint256",
          "name": "addedValue",
          "type": "uint256"
        }
      ],
      "name": "increaseAllowance",
      "outputs": [
        {
          "internalType": "bool",
          "name": "",
          "type": "bool"
        }
      ],
      "stateMutability": "nonpayable",
      "type": "function"
    },
    {
      "inputs": [],
      "name": "musicnft",
      "outputs": [
        {
          "internalType": "contract MusicNFt",
          "name": "",
          "type": "address"
        }
      ],
      "stateMutability": "view",
      "type": "function"
    },
    {
      "inputs": [],
      "name": "name",
      "outputs": [
        {
          "internalType": "string",
          "name": "",
          "type": "string"
        }
      ],
      "stateMutability": "view",
      "type": "function"
    },
    {
      "inputs": [],
      "name": "owner",
      "outputs": [
        {
          "internalType": "address",
          "name": "",
          "type": "address"
        }
      ],
      "stateMutability": "view",
      "type": "function"
    },
    {
      "inputs": [
        {
          "internalType": "uint256",
          "name": "tokenId",
          "type": "uint256"
        }
      ],
      "name": "ownerOf",
      "outputs": [
        {
          "internalType": "address",
          "name": "",
          "type": "address"
        }
      ],
      "stateMutability": "view",
      "type": "function"
    },
    {
      "inputs": [],
      "name": "paused",
      "outputs": [
        {
          "internalType": "bool",
          "name": "",
          "type": "bool"
        }
      ],
      "stateMutability": "view",
      "type": "function"
    },
    {
      "inputs": [],
      "name": "renounceOwnership",
      "outputs": [],
      "stateMutability": "nonpayable",
      "type": "function"
    },
    {
      "inputs": [],
      "name": "symbol",
      "outputs": [
        {
          "internalType": "string",
          "name": "",
          "type": "string"
        }
      ],
      "stateMutability": "view",
      "type": "function"
    },
    {
      "inputs": [],
      "name": "totalSupply",
      "outputs": [
        {
          "internalType": "uint256",
          "name": "",
          "type": "uint256"
        }
      ],
      "stateMutability": "view",
      "type": "function"
    },
    {
      "inputs": [
        {
          "internalType": "address",
          "name": "recipient",
          "type": "address"
        },
        {
          "internalType": "uint256",
          "name": "amount",
          "type": "uint256"
        }
      ],
      "name": "transfer",
      "outputs": [
        {
          "internalType": "bool",
          "name": "",
          "type": "bool"
        }
      ],
      "stateMutability": "nonpayable",
      "type": "function"
    },
    {
      "inputs": [
        {
          "internalType": "address",
          "name": "sender",
          "type": "address"
        },
        {
          "internalType": "address",
          "name": "recipient",
          "type": "address"
        },
        {
          "internalType": "uint256",
          "name": "amount",
          "type": "uint256"
        }
      ],
      "name": "transferFrom",
      "outputs": [
        {
          "internalType": "bool",
          "name": "",
          "type": "bool"
        }
      ],
      "stateMutability": "nonpayable",
      "type": "function"
    },
    {
      "inputs": [
        {
          "internalType": "address",
          "name": "newOwner",
          "type": "address"
        }
      ],
      "name": "transferOwnership",
      "outputs": [],
      "stateMutability": "nonpayable",
      "type": "function"
    }
  ],
  "bytecode": "0x60806040523480156200001157600080fd5b506040516200237c3803806200237c8339818101604052810190620000379190620002ef565b6040518060400160405280601581526020017f4d757369634c6162536d617274436f6e747261637400000000000000000000008152506040518060400160405280600481526020017f4d4c5343000000000000000000000000000000000000000000000000000000008152508160039080519060200190620000bb92919062000228565b508060049080519060200190620000d492919062000228565b5050506000600560006101000a81548160ff02191690831515021790555062000112620001066200015a60201b60201c565b6200016260201b60201c565b80600660006101000a81548173ffffffffffffffffffffffffffffffffffffffff021916908373ffffffffffffffffffffffffffffffffffffffff16021790555050620003e2565b600033905090565b6000600560019054906101000a900473ffffffffffffffffffffffffffffffffffffffff16905081600560016101000a81548173ffffffffffffffffffffffffffffffffffffffff021916908373ffffffffffffffffffffffffffffffffffffffff1602179055508173ffffffffffffffffffffffffffffffffffffffff168173ffffffffffffffffffffffffffffffffffffffff167f8be0079c531659141344cd1fd0a4f28419497f9722a3daafe3b4186f6b6457e060405160405180910390a35050565b828054620002369062000363565b90600052602060002090601f0160209004810192826200025a5760008555620002a6565b82601f106200027557805160ff1916838001178555620002a6565b82800160010185558215620002a6579182015b82811115620002a557825182559160200191906001019062000288565b5b509050620002b59190620002b9565b5090565b5b80821115620002d4576000816000905550600101620002ba565b5090565b600081519050620002e981620003c8565b92915050565b6000602082840312156200030257600080fd5b60006200031284828501620002d8565b91505092915050565b6000620003288262000343565b9050919050565b60006200033c826200031b565b9050919050565b600073ffffffffffffffffffffffffffffffffffffffff82169050919050565b600060028204905060018216806200037c57607f821691505b6020821081141562000393576200039262000399565b5b50919050565b7f4e487b7100000000000000000000000000000000000000000000000000000000600052602260045260246000fd5b620003d3816200032f565b8114620003df57600080fd5b50565b611f8a80620003f26000396000f3fe608060405234801561001057600080fd5b50600436106101215760003560e01c806370a08231116100ad578063a457c2d711610071578063a457c2d71461030c578063a9059cbb1461033c578063b6cf127c1461036c578063dd62ed3e1461038a578063f2fde38b146103ba57610121565b806370a082311461027a578063715018a6146102aa57806379cc6790146102b45780638da5cb5b146102d057806395d89b41146102ee57610121565b8063313ce567116100f4578063313ce567146101c257806339509351146101e057806342966c68146102105780635c975abb1461022c5780636352211e1461024a57610121565b806306fdde0314610126578063095ea7b31461014457806318160ddd1461017457806323b872dd14610192575b600080fd5b61012e6103d6565b60405161013b919061175e565b60405180910390f35b61015e6004803603810190610159919061145d565b610468565b60405161016b9190611728565b60405180910390f35b61017c610486565b6040516101899190611920565b60405180910390f35b6101ac60048036038101906101a7919061140e565b610490565b6040516101b99190611728565b60405180910390f35b6101ca610588565b6040516101d7919061193b565b60405180910390f35b6101fa60048036038101906101f5919061145d565b610591565b6040516102079190611728565b60405180910390f35b61022a60048036038101906102259190611499565b61063d565b005b610234610651565b6040516102419190611728565b60405180910390f35b610264600480360381019061025f9190611499565b610668565b604051610271919061170d565b60405180910390f35b610294600480360381019061028f9190611380565b610791565b6040516102a19190611920565b60405180910390f35b6102b26107d9565b005b6102ce60048036038101906102c9919061145d565b610861565b005b6102d86108dc565b6040516102e5919061170d565b60405180910390f35b6102f6610906565b604051610303919061175e565b60405180910390f35b6103266004803603810190610321919061145d565b610998565b6040516103339190611728565b60405180910390f35b6103566004803603810190610351919061145d565b610a83565b6040516103639190611728565b60405180910390f35b610374610aa1565b6040516103819190611743565b60405180910390f35b6103a4600480360381019061039f91906113d2565b610ac7565b6040516103b19190611920565b60405180910390f35b6103d460048036038101906103cf9190611380565b610b4e565b005b6060600380546103e590611aa8565b80601f016020809104026020016040519081016040528092919081815260200182805461041190611aa8565b801561045e5780601f106104335761010080835404028352916020019161045e565b820191906000526020600020905b81548152906001019060200180831161044157829003601f168201915b5050505050905090565b600061047c610475610c46565b8484610c4e565b6001905092915050565b6000600254905090565b600061049d848484610e19565b6000600160008673ffffffffffffffffffffffffffffffffffffffff1673ffffffffffffffffffffffffffffffffffffffff16815260200190815260200160002060006104e8610c46565b73ffffffffffffffffffffffffffffffffffffffff1673ffffffffffffffffffffffffffffffffffffffff16815260200190815260200160002054905082811015610568576040517f08c379a000000000000000000000000000000000000000000000000000000000815260040161055f90611840565b60405180910390fd5b61057c85610574610c46565b858403610c4e565b60019150509392505050565b60006012905090565b600061063361059e610c46565b8484600160006105ac610c46565b73ffffffffffffffffffffffffffffffffffffffff1673ffffffffffffffffffffffffffffffffffffffff16815260200190815260200160002060008873ffffffffffffffffffffffffffffffffffffffff1673ffffffffffffffffffffffffffffffffffffffff1681526020019081526020016000205461062e9190611972565b610c4e565b6001905092915050565b61064e610648610c46565b8261109a565b50565b6000600560009054906101000a900460ff16905090565b600080600660009054906101000a900473ffffffffffffffffffffffffffffffffffffffff1673ffffffffffffffffffffffffffffffffffffffff16636352211e846040518263ffffffff1660e01b81526004016106c69190611920565b60206040518083038186803b1580156106de57600080fd5b505afa1580156106f2573d6000803e3d6000fd5b505050506040513d601f19601f8201168201806040525081019061071691906113a9565b9050600073ffffffffffffffffffffffffffffffffffffffff168173ffffffffffffffffffffffffffffffffffffffff161415610788576040517f08c379a000000000000000000000000000000000000000000000000000000000815260040161077f90611820565b60405180910390fd5b80915050919050565b60008060008373ffffffffffffffffffffffffffffffffffffffff1673ffffffffffffffffffffffffffffffffffffffff168152602001908152602001600020549050919050565b6107e1610c46565b73ffffffffffffffffffffffffffffffffffffffff166107ff6108dc565b73ffffffffffffffffffffffffffffffffffffffff1614610855576040517f08c379a000000000000000000000000000000000000000000000000000000000815260040161084c90611860565b60405180910390fd5b61085f6000611271565b565b60006108748361086f610c46565b610ac7565b9050818110156108b9576040517f08c379a00000000000000000000000000000000000000000000000000000000081526004016108b090611880565b60405180910390fd5b6108cd836108c5610c46565b848403610c4e565b6108d7838361109a565b505050565b6000600560019054906101000a900473ffffffffffffffffffffffffffffffffffffffff16905090565b60606004805461091590611aa8565b80601f016020809104026020016040519081016040528092919081815260200182805461094190611aa8565b801561098e5780601f106109635761010080835404028352916020019161098e565b820191906000526020600020905b81548152906001019060200180831161097157829003601f168201915b5050505050905090565b600080600160006109a7610c46565b73ffffffffffffffffffffffffffffffffffffffff1673ffffffffffffffffffffffffffffffffffffffff16815260200190815260200160002060008573ffffffffffffffffffffffffffffffffffffffff1673ffffffffffffffffffffffffffffffffffffffff16815260200190815260200160002054905082811015610a64576040517f08c379a0000000000000000000000000000000000000000000000000000000008152600401610a5b90611900565b60405180910390fd5b610a78610a6f610c46565b85858403610c4e565b600191505092915050565b6000610a97610a90610c46565b8484610e19565b6001905092915050565b600660009054906101000a900473ffffffffffffffffffffffffffffffffffffffff1681565b6000600160008473ffffffffffffffffffffffffffffffffffffffff1673ffffffffffffffffffffffffffffffffffffffff16815260200190815260200160002060008373ffffffffffffffffffffffffffffffffffffffff1673ffffffffffffffffffffffffffffffffffffffff16815260200190815260200160002054905092915050565b610b56610c46565b73ffffffffffffffffffffffffffffffffffffffff16610b746108dc565b73ffffffffffffffffffffffffffffffffffffffff1614610bca576040517f08c379a0000000000000000000000000000000000000000000000000000000008152600401610bc190611860565b60405180910390fd5b600073ffffffffffffffffffffffffffffffffffffffff168173ffffffffffffffffffffffffffffffffffffffff161415610c3a576040517f08c379a0000000000000000000000000000000000000000000000000000000008152600401610c31906117c0565b60405180910390fd5b610c4381611271565b50565b600033905090565b600073ffffffffffffffffffffffffffffffffffffffff168373ffffffffffffffffffffffffffffffffffffffff161415610cbe576040517f08c379a0000000000000000000000000000000000000000000000000000000008152600401610cb5906118e0565b60405180910390fd5b600073ffffffffffffffffffffffffffffffffffffffff168273ffffffffffffffffffffffffffffffffffffffff161415610d2e576040517f08c379a0000000000000000000000000000000000000000000000000000000008152600401610d25906117e0565b60405180910390fd5b80600160008573ffffffffffffffffffffffffffffffffffffffff1673ffffffffffffffffffffffffffffffffffffffff16815260200190815260200160002060008473ffffffffffffffffffffffffffffffffffffffff1673ffffffffffffffffffffffffffffffffffffffff168152602001908152602001600020819055508173ffffffffffffffffffffffffffffffffffffffff168373ffffffffffffffffffffffffffffffffffffffff167f8c5be1e5ebec7d5bd14f71427d1e84f3dd0314c0f7b2291e5b200ac8c7c3b92583604051610e0c9190611920565b60405180910390a3505050565b600073ffffffffffffffffffffffffffffffffffffffff168373ffffffffffffffffffffffffffffffffffffffff161415610e89576040517f08c379a0000000000000000000000000000000000000000000000000000000008152600401610e80906118c0565b60405180910390fd5b600073ffffffffffffffffffffffffffffffffffffffff168273ffffffffffffffffffffffffffffffffffffffff161415610ef9576040517f08c379a0000000000000000000000000000000000000000000000000000000008152600401610ef090611780565b60405180910390fd5b610f04838383611337565b60008060008573ffffffffffffffffffffffffffffffffffffffff1673ffffffffffffffffffffffffffffffffffffffff16815260200190815260200160002054905081811015610f8a576040517f08c379a0000000000000000000000000000000000000000000000000000000008152600401610f8190611800565b60405180910390fd5b8181036000808673ffffffffffffffffffffffffffffffffffffffff1673ffffffffffffffffffffffffffffffffffffffff16815260200190815260200160002081905550816000808573ffffffffffffffffffffffffffffffffffffffff1673ffffffffffffffffffffffffffffffffffffffff168152602001908152602001600020600082825461101d9190611972565b925050819055508273ffffffffffffffffffffffffffffffffffffffff168473ffffffffffffffffffffffffffffffffffffffff167fddf252ad1be2c89b69c2b068fc378daa952ba7f163c4a11628f55a4df523b3ef846040516110819190611920565b60405180910390a361109484848461133c565b50505050565b600073ffffffffffffffffffffffffffffffffffffffff168273ffffffffffffffffffffffffffffffffffffffff16141561110a576040517f08c379a0000000000000000000000000000000000000000000000000000000008152600401611101906118a0565b60405180910390fd5b61111682600083611337565b60008060008473ffffffffffffffffffffffffffffffffffffffff1673ffffffffffffffffffffffffffffffffffffffff1681526020019081526020016000205490508181101561119c576040517f08c379a0000000000000000000000000000000000000000000000000000000008152600401611193906117a0565b60405180910390fd5b8181036000808573ffffffffffffffffffffffffffffffffffffffff1673ffffffffffffffffffffffffffffffffffffffff1681526020019081526020016000208190555081600260008282546111f391906119c8565b92505081905550600073ffffffffffffffffffffffffffffffffffffffff168373ffffffffffffffffffffffffffffffffffffffff167fddf252ad1be2c89b69c2b068fc378daa952ba7f163c4a11628f55a4df523b3ef846040516112589190611920565b60405180910390a361126c8360008461133c565b505050565b6000600560019054906101000a900473ffffffffffffffffffffffffffffffffffffffff16905081600560016101000a81548173ffffffffffffffffffffffffffffffffffffffff021916908373ffffffffffffffffffffffffffffffffffffffff1602179055508173ffffffffffffffffffffffffffffffffffffffff168173ffffffffffffffffffffffffffffffffffffffff167f8be0079c531659141344cd1fd0a4f28419497f9722a3daafe3b4186f6b6457e060405160405180910390a35050565b505050565b505050565b60008135905061135081611f26565b92915050565b60008151905061136581611f26565b92915050565b60008135905061137a81611f3d565b92915050565b60006020828403121561139257600080fd5b60006113a084828501611341565b91505092915050565b6000602082840312156113bb57600080fd5b60006113c984828501611356565b91505092915050565b600080604083850312156113e557600080fd5b60006113f385828601611341565b925050602061140485828601611341565b9150509250929050565b60008060006060848603121561142357600080fd5b600061143186828701611341565b935050602061144286828701611341565b92505060406114538682870161136b565b9150509250925092565b6000806040838503121561147057600080fd5b600061147e85828601611341565b925050602061148f8582860161136b565b9150509250929050565b6000602082840312156114ab57600080fd5b60006114b98482850161136b565b91505092915050565b6114cb816119fc565b82525050565b6114da81611a0e565b82525050565b6114e981611a51565b82525050565b60006114fa82611956565b6115048185611961565b9350611514818560208601611a75565b61151d81611b38565b840191505092915050565b6000611535602383611961565b915061154082611b49565b604082019050919050565b6000611558602283611961565b915061156382611b98565b604082019050919050565b600061157b602683611961565b915061158682611be7565b604082019050919050565b600061159e602283611961565b91506115a982611c36565b604082019050919050565b60006115c1602683611961565b91506115cc82611c85565b604082019050919050565b60006115e4602983611961565b91506115ef82611cd4565b604082019050919050565b6000611607602883611961565b915061161282611d23565b604082019050919050565b600061162a602083611961565b915061163582611d72565b602082019050919050565b600061164d602483611961565b915061165882611d9b565b604082019050919050565b6000611670602183611961565b915061167b82611dea565b604082019050919050565b6000611693602583611961565b915061169e82611e39565b604082019050919050565b60006116b6602483611961565b91506116c182611e88565b604082019050919050565b60006116d9602583611961565b91506116e482611ed7565b604082019050919050565b6116f881611a3a565b82525050565b61170781611a44565b82525050565b600060208201905061172260008301846114c2565b92915050565b600060208201905061173d60008301846114d1565b92915050565b600060208201905061175860008301846114e0565b92915050565b6000602082019050818103600083015261177881846114ef565b905092915050565b6000602082019050818103600083015261179981611528565b9050919050565b600060208201905081810360008301526117b98161154b565b9050919050565b600060208201905081810360008301526117d98161156e565b9050919050565b600060208201905081810360008301526117f981611591565b9050919050565b60006020820190508181036000830152611819816115b4565b9050919050565b60006020820190508181036000830152611839816115d7565b9050919050565b60006020820190508181036000830152611859816115fa565b9050919050565b600060208201905081810360008301526118798161161d565b9050919050565b6000602082019050818103600083015261189981611640565b9050919050565b600060208201905081810360008301526118b981611663565b9050919050565b600060208201905081810360008301526118d981611686565b9050919050565b600060208201905081810360008301526118f9816116a9565b9050919050565b60006020820190508181036000830152611919816116cc565b9050919050565b600060208201905061193560008301846116ef565b92915050565b600060208201905061195060008301846116fe565b92915050565b600081519050919050565b600082825260208201905092915050565b600061197d82611a3a565b915061198883611a3a565b9250827fffffffffffffffffffffffffffffffffffffffffffffffffffffffffffffffff038211156119bd576119bc611ada565b5b828201905092915050565b60006119d382611a3a565b91506119de83611a3a565b9250828210156119f1576119f0611ada565b5b828203905092915050565b6000611a0782611a1a565b9050919050565b60008115159050919050565b600073ffffffffffffffffffffffffffffffffffffffff82169050919050565b6000819050919050565b600060ff82169050919050565b6000611a5c82611a63565b9050919050565b6000611a6e82611a1a565b9050919050565b60005b83811015611a93578082015181840152602081019050611a78565b83811115611aa2576000848401525b50505050565b60006002820490506001821680611ac057607f821691505b60208210811415611ad457611ad3611b09565b5b50919050565b7f4e487b7100000000000000000000000000000000000000000000000000000000600052601160045260246000fd5b7f4e487b7100000000000000000000000000000000000000000000000000000000600052602260045260246000fd5b6000601f19601f8301169050919050565b7f45524332303a207472616e7366657220746f20746865207a65726f206164647260008201527f6573730000000000000000000000000000000000000000000000000000000000602082015250565b7f45524332303a206275726e20616d6f756e7420657863656564732062616c616e60008201527f6365000000000000000000000000000000000000000000000000000000000000602082015250565b7f4f776e61626c653a206e6577206f776e657220697320746865207a65726f206160008201527f6464726573730000000000000000000000000000000000000000000000000000602082015250565b7f45524332303a20617070726f766520746f20746865207a65726f20616464726560008201527f7373000000000000000000000000000000000000000000000000000000000000602082015250565b7f45524332303a207472616e7366657220616d6f756e742065786365656473206260008201527f616c616e63650000000000000000000000000000000000000000000000000000602082015250565b7f4552433732313a206f776e657220717565727920666f72206e6f6e657869737460008201527f656e7420746f6b656e0000000000000000000000000000000000000000000000602082015250565b7f45524332303a207472616e7366657220616d6f756e742065786365656473206160008201527f6c6c6f77616e6365000000000000000000000000000000000000000000000000602082015250565b7f4f776e61626c653a2063616c6c6572206973206e6f7420746865206f776e6572600082015250565b7f45524332303a206275726e20616d6f756e74206578636565647320616c6c6f7760008201527f616e636500000000000000000000000000000000000000000000000000000000602082015250565b7f45524332303a206275726e2066726f6d20746865207a65726f2061646472657360008201527f7300000000000000000000000000000000000000000000000000000000000000602082015250565b7f45524332303a207472616e736665722066726f6d20746865207a65726f20616460008201527f6472657373000000000000000000000000000000000000000000000000000000602082015250565b7f45524332303a20617070726f76652066726f6d20746865207a65726f2061646460008201527f7265737300000000000000000000000000000000000000000000000000000000602082015250565b7f45524332303a2064656372656173656420616c6c6f77616e63652062656c6f7760008201527f207a65726f000000000000000000000000000000000000000000000000000000602082015250565b611f2f816119fc565b8114611f3a57600080fd5b50565b611f4681611a3a565b8114611f5157600080fd5b5056fea26469706673582212207b53ef117b213ee77113f5ee1054117867b5305568fb6c83a64c89f0af3dc23b64736f6c63430008020033",
  "linkReferences": {},
  "deployedLinkReferences": {}
}