{
  "_format": "hh-sol-artifact-1",
  "contractName": "MusicNFt",
  "sourceName": "contracts/MusicNFt.sol",
  "abi": [
    {
      "inputs": [],
      "stateMutability": "nonpayable",
      "type": "constructor"
    },
    {
      "anonymous": false,
      "inputs": [
        {
          "indexed": true,
          "internalType": "address",
          "name": "owner",
          "type": "address"
        },
        {
          "indexed": true,
          "internalType": "address",
          "name": "approved",
          "type": "address"
        },
        {
          "indexed": true,
          "internalType": "uint256",
          "name": "tokenId",
          "type": "uint256"
        }
      ],
      "name": "Approval",
      "type": "event"
    },
    {
      "anonymous": false,
      "inputs": [
        {
          "indexed": true,
          "internalType": "address",
          "name": "owner",
          "type": "address"
        },
        {
          "indexed": true,
          "internalType": "address",
          "name": "operator",
          "type": "address"
        },
        {
          "indexed": false,
          "internalType": "bool",
          "name": "approved",
          "type": "bool"
        }
      ],
      "name": "ApprovalForAll",
      "type": "event"
    },
    {
      "anonymous": false,
      "inputs": [
        {
          "indexed": true,
          "internalType": "address",
          "name": "previousOwner",
          "type": "address"
        },
        {
          "indexed": true,
          "internalType": "address",
          "name": "newOwner",
          "type": "address"
        }
      ],
      "name": "OwnershipTransferred",
      "type": "event"
    },
    {
      "anonymous": false,
      "inputs": [
        {
          "indexed": true,
          "internalType": "address",
          "name": "from",
          "type": "address"
        },
        {
          "indexed": true,
          "internalType": "address",
          "name": "to",
          "type": "address"
        },
        {
          "indexed": true,
          "internalType": "uint256",
          "name": "tokenId",
          "type": "uint256"
        }
      ],
      "name": "Transfer",
      "type": "event"
    },
    {
      "inputs": [
        {
          "internalType": "address",
          "name": "wallet_address",
          "type": "address"
        },
        {
          "internalType": "string",
          "name": "tokenURI",
          "type": "string"
        }
      ],
      "name": "_mintMusic",
      "outputs": [
        {
          "internalType": "uint256",
          "name": "",
          "type": "uint256"
        }
      ],
      "stateMutability": "nonpayable",
      "type": "function"
    },
    {
      "inputs": [
        {
          "internalType": "address",
          "name": "to",
          "type": "address"
        },
        {
          "internalType": "uint256",
          "name": "tokenId",
          "type": "uint256"
        }
      ],
      "name": "approve",
      "outputs": [],
      "stateMutability": "nonpayable",
      "type": "function"
    },
    {
      "inputs": [
        {
          "internalType": "address",
          "name": "owner",
          "type": "address"
        }
      ],
      "name": "balanceOf",
      "outputs": [
        {
          "internalType": "uint256",
          "name": "",
          "type": "uint256"
        }
      ],
      "stateMutability": "view",
      "type": "function"
    },
    {
      "inputs": [
        {
          "internalType": "uint256",
          "name": "tokenId",
          "type": "uint256"
        }
      ],
      "name": "getApproved",
      "outputs": [
        {
          "internalType": "address",
          "name": "",
          "type": "address"
        }
      ],
      "stateMutability": "view",
      "type": "function"
    },
    {
      "inputs": [
        {
          "internalType": "address",
          "name": "owner",
          "type": "address"
        },
        {
          "internalType": "address",
          "name": "operator",
          "type": "address"
        }
      ],
      "name": "isApprovedForAll",
      "outputs": [
        {
          "internalType": "bool",
          "name": "",
          "type": "bool"
        }
      ],
      "stateMutability": "view",
      "type": "function"
    },
    {
      "inputs": [],
      "name": "name",
      "outputs": [
        {
          "internalType": "string",
          "name": "",
          "type": "string"
        }
      ],
      "stateMutability": "view",
      "type": "function"
    },
    {
      "inputs": [],
      "name": "owner",
      "outputs": [
        {
          "internalType": "address",
          "name": "",
          "type": "address"
        }
      ],
      "stateMutability": "view",
      "type": "function"
    },
    {
      "inputs": [
        {
          "internalType": "uint256",
          "name": "tokenId",
          "type": "uint256"
        }
      ],
      "name": "ownerOf",
      "outputs": [
        {
          "internalType": "address",
          "name": "",
          "type": "address"
        }
      ],
      "stateMutability": "view",
      "type": "function"
    },
    {
      "inputs": [],
      "name": "renounceOwnership",
      "outputs": [],
      "stateMutability": "nonpayable",
      "type": "function"
    },
    {
      "inputs": [
        {
          "internalType": "address",
          "name": "from",
          "type": "address"
        },
        {
          "internalType": "address",
          "name": "to",
          "type": "address"
        },
        {
          "internalType": "uint256",
          "name": "tokenId",
          "type": "uint256"
        }
      ],
      "name": "safeTransferFrom",
      "outputs": [],
      "stateMutability": "nonpayable",
      "type": "function"
    },
    {
      "inputs": [
        {
          "internalType": "address",
          "name": "from",
          "type": "address"
        },
        {
          "internalType": "address",
          "name": "to",
          "type": "address"
        },
        {
          "internalType": "uint256",
          "name": "tokenId",
          "type": "uint256"
        },
        {
          "internalType": "bytes",
          "name": "_data",
          "type": "bytes"
        }
      ],
      "name": "safeTransferFrom",
      "outputs": [],
      "stateMutability": "nonpayable",
      "type": "function"
    },
    {
      "inputs": [
        {
          "internalType": "address",
          "name": "operator",
          "type": "address"
        },
        {
          "internalType": "bool",
          "name": "approved",
          "type": "bool"
        }
      ],
      "name": "setApprovalForAll",
      "outputs": [],
      "stateMutability": "nonpayable",
      "type": "function"
    },
    {
      "inputs": [
        {
          "internalType": "bytes4",
          "name": "interfaceId",
          "type": "bytes4"
        }
      ],
      "name": "supportsInterface",
      "outputs": [
        {
          "internalType": "bool",
          "name": "",
          "type": "bool"
        }
      ],
      "stateMutability": "view",
      "type": "function"
    },
    {
      "inputs": [],
      "name": "symbol",
      "outputs": [
        {
          "internalType": "string",
          "name": "",
          "type": "string"
        }
      ],
      "stateMutability": "view",
      "type": "function"
    },
    {
      "inputs": [
        {
          "internalType": "uint256",
          "name": "tokenId",
          "type": "uint256"
        }
      ],
      "name": "tokenURI",
      "outputs": [
        {
          "internalType": "string",
          "name": "",
          "type": "string"
        }
      ],
      "stateMutability": "view",
      "type": "function"
    },
    {
      "inputs": [
        {
          "internalType": "address",
          "name": "from",
          "type": "address"
        },
        {
          "internalType": "address",
          "name": "to",
          "type": "address"
        },
        {
          "internalType": "uint256",
          "name": "tokenId",
          "type": "uint256"
        }
      ],
      "name": "transferFrom",
      "outputs": [],
      "stateMutability": "nonpayable",
      "type": "function"
    },
    {
      "inputs": [
        {
          "internalType": "address",
          "name": "newOwner",
          "type": "address"
        }
      ],
      "name": "transferOwnership",
      "outputs": [],
      "stateMutability": "nonpayable",
      "type": "function"
    }
  ],
  "bytecode": "0x60806040523480156200001157600080fd5b506040518060400160405280600981526020017f4d75736963204c616200000000000000000000000000000000000000000000008152506040518060400160405280600581526020017f4d4c4e4654000000000000000000000000000000000000000000000000000000815250816000908051906020019062000096929190620001a6565b508060019080519060200190620000af929190620001a6565b505050620000d2620000c6620000d860201b60201c565b620000e060201b60201c565b620002bb565b600033905090565b6000600760009054906101000a900473ffffffffffffffffffffffffffffffffffffffff16905081600760006101000a81548173ffffffffffffffffffffffffffffffffffffffff021916908373ffffffffffffffffffffffffffffffffffffffff1602179055508173ffffffffffffffffffffffffffffffffffffffff168173ffffffffffffffffffffffffffffffffffffffff167f8be0079c531659141344cd1fd0a4f28419497f9722a3daafe3b4186f6b6457e060405160405180910390a35050565b828054620001b49062000256565b90600052602060002090601f016020900481019282620001d8576000855562000224565b82601f10620001f357805160ff191683800117855562000224565b8280016001018555821562000224579182015b828111156200022357825182559160200191906001019062000206565b5b50905062000233919062000237565b5090565b5b808211156200025257600081600090555060010162000238565b5090565b600060028204905060018216806200026f57607f821691505b602082108114156200028657620002856200028c565b5b50919050565b7f4e487b7100000000000000000000000000000000000000000000000000000000600052602260045260246000fd5b612f6480620002cb6000396000f3fe608060405234801561001057600080fd5b506004361061010b5760003560e01c8063715018a6116100a2578063a22cb46511610071578063a22cb465146102b8578063b88d4fde146102d4578063c87b56dd146102f0578063e985e9c514610320578063f2fde38b146103505761010b565b8063715018a61461024257806374db5a791461024c5780638da5cb5b1461027c57806395d89b411461029a5761010b565b806323b872dd116100de57806323b872dd146101aa57806342842e0e146101c65780636352211e146101e257806370a08231146102125761010b565b806301ffc9a71461011057806306fdde0314610140578063081812fc1461015e578063095ea7b31461018e575b600080fd5b61012a60048036038101906101259190611f13565b61036c565b604051610137919061235f565b60405180910390f35b61014861044e565b604051610155919061237a565b60405180910390f35b61017860048036038101906101739190611f65565b6104e0565b60405161018591906122f8565b60405180910390f35b6101a860048036038101906101a39190611ed7565b610565565b005b6101c460048036038101906101bf9190611d7d565b61067d565b005b6101e060048036038101906101db9190611d7d565b6106dd565b005b6101fc60048036038101906101f79190611f65565b6106fd565b60405161020991906122f8565b60405180910390f35b61022c60048036038101906102279190611d18565b6107af565b60405161023991906125dc565b60405180910390f35b61024a610867565b005b61026660048036038101906102619190611e83565b6108ef565b60405161027391906125dc565b60405180910390f35b61028461093a565b60405161029191906122f8565b60405180910390f35b6102a2610964565b6040516102af919061237a565b60405180910390f35b6102d260048036038101906102cd9190611e47565b6109f6565b005b6102ee60048036038101906102e99190611dcc565b610b77565b005b61030a60048036038101906103059190611f65565b610bd9565b604051610317919061237a565b60405180910390f35b61033a60048036038101906103359190611d41565b610beb565b604051610347919061235f565b60405180910390f35b61036a60048036038101906103659190611d18565b610c7f565b005b60007f80ac58cd000000000000000000000000000000000000000000000000000000007bffffffffffffffffffffffffffffffffffffffffffffffffffffffff1916827bffffffffffffffffffffffffffffffffffffffffffffffffffffffff1916148061043757507f5b5e139f000000000000000000000000000000000000000000000000000000007bffffffffffffffffffffffffffffffffffffffffffffffffffffffff1916827bffffffffffffffffffffffffffffffffffffffffffffffffffffffff1916145b80610447575061044682610d77565b5b9050919050565b60606000805461045d90612832565b80601f016020809104026020016040519081016040528092919081815260200182805461048990612832565b80156104d65780601f106104ab576101008083540402835291602001916104d6565b820191906000526020600020905b8154815290600101906020018083116104b957829003601f168201915b5050505050905090565b60006104eb82610de1565b61052a576040517f08c379a00000000000000000000000000000000000000000000000000000000081526004016105219061251c565b60405180910390fd5b6004600083815260200190815260200160002060009054906101000a900473ffffffffffffffffffffffffffffffffffffffff169050919050565b6000610570826106fd565b90508073ffffffffffffffffffffffffffffffffffffffff168373ffffffffffffffffffffffffffffffffffffffff1614156105e1576040517f08c379a00000000000000000000000000000000000000000000000000000000081526004016105d89061259c565b60405180910390fd5b8073ffffffffffffffffffffffffffffffffffffffff16610600610e4d565b73ffffffffffffffffffffffffffffffffffffffff16148061062f575061062e81610629610e4d565b610beb565b5b61066e576040517f08c379a00000000000000000000000000000000000000000000000000000000081526004016106659061245c565b60405180910390fd5b6106788383610e55565b505050565b61068e610688610e4d565b82610f0e565b6106cd576040517f08c379a00000000000000000000000000000000000000000000000000000000081526004016106c4906125bc565b60405180910390fd5b6106d8838383610fec565b505050565b6106f883838360405180602001604052806000815250610b77565b505050565b6000806002600084815260200190815260200160002060009054906101000a900473ffffffffffffffffffffffffffffffffffffffff169050600073ffffffffffffffffffffffffffffffffffffffff168173ffffffffffffffffffffffffffffffffffffffff1614156107a6576040517f08c379a000000000000000000000000000000000000000000000000000000000815260040161079d9061249c565b60405180910390fd5b80915050919050565b60008073ffffffffffffffffffffffffffffffffffffffff168273ffffffffffffffffffffffffffffffffffffffff161415610820576040517f08c379a00000000000000000000000000000000000000000000000000000000081526004016108179061247c565b60405180910390fd5b600360008373ffffffffffffffffffffffffffffffffffffffff1673ffffffffffffffffffffffffffffffffffffffff168152602001908152602001600020549050919050565b61086f610e4d565b73ffffffffffffffffffffffffffffffffffffffff1661088d61093a565b73ffffffffffffffffffffffffffffffffffffffff16146108e3576040517f08c379a00000000000000000000000000000000000000000000000000000000081526004016108da9061253c565b60405180910390fd5b6108ed6000611248565b565b60006108fb600861130e565b60006109076008611324565b905061091281610de1565b1561091c57600080fd5b6109268482611332565b6109308184611500565b8091505092915050565b6000600760009054906101000a900473ffffffffffffffffffffffffffffffffffffffff16905090565b60606001805461097390612832565b80601f016020809104026020016040519081016040528092919081815260200182805461099f90612832565b80156109ec5780601f106109c1576101008083540402835291602001916109ec565b820191906000526020600020905b8154815290600101906020018083116109cf57829003601f168201915b5050505050905090565b6109fe610e4d565b73ffffffffffffffffffffffffffffffffffffffff168273ffffffffffffffffffffffffffffffffffffffff161415610a6c576040517f08c379a0000000000000000000000000000000000000000000000000000000008152600401610a639061241c565b60405180910390fd5b8060056000610a79610e4d565b73ffffffffffffffffffffffffffffffffffffffff1673ffffffffffffffffffffffffffffffffffffffff16815260200190815260200160002060008473ffffffffffffffffffffffffffffffffffffffff1673ffffffffffffffffffffffffffffffffffffffff16815260200190815260200160002060006101000a81548160ff0219169083151502179055508173ffffffffffffffffffffffffffffffffffffffff16610b26610e4d565b73ffffffffffffffffffffffffffffffffffffffff167f17307eab39ab6107e8899845ad3d59bd9653f200f220920489ca2b5937696c3183604051610b6b919061235f565b60405180910390a35050565b610b88610b82610e4d565b83610f0e565b610bc7576040517f08c379a0000000000000000000000000000000000000000000000000000000008152600401610bbe906125bc565b60405180910390fd5b610bd384848484611574565b50505050565b6060610be4826115d0565b9050919050565b6000600560008473ffffffffffffffffffffffffffffffffffffffff1673ffffffffffffffffffffffffffffffffffffffff16815260200190815260200160002060008373ffffffffffffffffffffffffffffffffffffffff1673ffffffffffffffffffffffffffffffffffffffff16815260200190815260200160002060009054906101000a900460ff16905092915050565b610c87610e4d565b73ffffffffffffffffffffffffffffffffffffffff16610ca561093a565b73ffffffffffffffffffffffffffffffffffffffff1614610cfb576040517f08c379a0000000000000000000000000000000000000000000000000000000008152600401610cf29061253c565b60405180910390fd5b600073ffffffffffffffffffffffffffffffffffffffff168173ffffffffffffffffffffffffffffffffffffffff161415610d6b576040517f08c379a0000000000000000000000000000000000000000000000000000000008152600401610d62906123bc565b60405180910390fd5b610d7481611248565b50565b60007f01ffc9a7000000000000000000000000000000000000000000000000000000007bffffffffffffffffffffffffffffffffffffffffffffffffffffffff1916827bffffffffffffffffffffffffffffffffffffffffffffffffffffffff1916149050919050565b60008073ffffffffffffffffffffffffffffffffffffffff166002600084815260200190815260200160002060009054906101000a900473ffffffffffffffffffffffffffffffffffffffff1673ffffffffffffffffffffffffffffffffffffffff1614159050919050565b600033905090565b816004600083815260200190815260200160002060006101000a81548173ffffffffffffffffffffffffffffffffffffffff021916908373ffffffffffffffffffffffffffffffffffffffff160217905550808273ffffffffffffffffffffffffffffffffffffffff16610ec8836106fd565b73ffffffffffffffffffffffffffffffffffffffff167f8c5be1e5ebec7d5bd14f71427d1e84f3dd0314c0f7b2291e5b200ac8c7c3b92560405160405180910390a45050565b6000610f1982610de1565b610f58576040517f08c379a0000000000000000000000000000000000000000000000000000000008152600401610f4f9061243c565b60405180910390fd5b6000610f63836106fd565b90508073ffffffffffffffffffffffffffffffffffffffff168473ffffffffffffffffffffffffffffffffffffffff161480610fd257508373ffffffffffffffffffffffffffffffffffffffff16610fba846104e0565b73ffffffffffffffffffffffffffffffffffffffff16145b80610fe35750610fe28185610beb565b5b91505092915050565b8273ffffffffffffffffffffffffffffffffffffffff1661100c826106fd565b73ffffffffffffffffffffffffffffffffffffffff1614611062576040517f08c379a00000000000000000000000000000000000000000000000000000000081526004016110599061255c565b60405180910390fd5b600073ffffffffffffffffffffffffffffffffffffffff168273ffffffffffffffffffffffffffffffffffffffff1614156110d2576040517f08c379a00000000000000000000000000000000000000000000000000000000081526004016110c9906123fc565b60405180910390fd5b6110dd838383611722565b6110e8600082610e55565b6001600360008573ffffffffffffffffffffffffffffffffffffffff1673ffffffffffffffffffffffffffffffffffffffff16815260200190815260200160002060008282546111389190612748565b925050819055506001600360008473ffffffffffffffffffffffffffffffffffffffff1673ffffffffffffffffffffffffffffffffffffffff168152602001908152602001600020600082825461118f91906126c1565b92505081905550816002600083815260200190815260200160002060006101000a81548173ffffffffffffffffffffffffffffffffffffffff021916908373ffffffffffffffffffffffffffffffffffffffff160217905550808273ffffffffffffffffffffffffffffffffffffffff168473ffffffffffffffffffffffffffffffffffffffff167fddf252ad1be2c89b69c2b068fc378daa952ba7f163c4a11628f55a4df523b3ef60405160405180910390a4505050565b6000600760009054906101000a900473ffffffffffffffffffffffffffffffffffffffff16905081600760006101000a81548173ffffffffffffffffffffffffffffffffffffffff021916908373ffffffffffffffffffffffffffffffffffffffff1602179055508173ffffffffffffffffffffffffffffffffffffffff168173ffffffffffffffffffffffffffffffffffffffff167f8be0079c531659141344cd1fd0a4f28419497f9722a3daafe3b4186f6b6457e060405160405180910390a35050565b6001816000016000828254019250508190555050565b600081600001549050919050565b600073ffffffffffffffffffffffffffffffffffffffff168273ffffffffffffffffffffffffffffffffffffffff1614156113a2576040517f08c379a0000000000000000000000000000000000000000000000000000000008152600401611399906124dc565b60405180910390fd5b6113ab81610de1565b156113eb576040517f08c379a00000000000000000000000000000000000000000000000000000000081526004016113e2906123dc565b60405180910390fd5b6113f760008383611722565b6001600360008473ffffffffffffffffffffffffffffffffffffffff1673ffffffffffffffffffffffffffffffffffffffff168152602001908152602001600020600082825461144791906126c1565b92505081905550816002600083815260200190815260200160002060006101000a81548173ffffffffffffffffffffffffffffffffffffffff021916908373ffffffffffffffffffffffffffffffffffffffff160217905550808273ffffffffffffffffffffffffffffffffffffffff16600073ffffffffffffffffffffffffffffffffffffffff167fddf252ad1be2c89b69c2b068fc378daa952ba7f163c4a11628f55a4df523b3ef60405160405180910390a45050565b61150982610de1565b611548576040517f08c379a000000000000000000000000000000000000000000000000000000000815260040161153f906124bc565b60405180910390fd5b8060066000848152602001908152602001600020908051906020019061156f929190611b3c565b505050565b61157f848484610fec565b61158b84848484611727565b6115ca576040517f08c379a00000000000000000000000000000000000000000000000000000000081526004016115c19061239c565b60405180910390fd5b50505050565b60606115db82610de1565b61161a576040517f08c379a0000000000000000000000000000000000000000000000000000000008152600401611611906124fc565b60405180910390fd5b600060066000848152602001908152602001600020805461163a90612832565b80601f016020809104026020016040519081016040528092919081815260200182805461166690612832565b80156116b35780601f10611688576101008083540402835291602001916116b3565b820191906000526020600020905b81548152906001019060200180831161169657829003601f168201915b5050505050905060006116c46118be565b90506000815114156116da57819250505061171d565b60008251111561170f5780826040516020016116f79291906122d4565b6040516020818303038152906040529250505061171d565b611718846118d5565b925050505b919050565b505050565b60006117488473ffffffffffffffffffffffffffffffffffffffff1661197c565b156118b1578373ffffffffffffffffffffffffffffffffffffffff1663150b7a02611771610e4d565b8786866040518563ffffffff1660e01b81526004016117939493929190612313565b602060405180830381600087803b1580156117ad57600080fd5b505af19250505080156117de57506040513d601f19601f820116820180604052508101906117db9190611f3c565b60015b611861573d806000811461180e576040519150601f19603f3d011682016040523d82523d6000602084013e611813565b606091505b50600081511415611859576040517f08c379a00000000000000000000000000000000000000000000000000000000081526004016118509061239c565b60405180910390fd5b805181602001fd5b63150b7a0260e01b7bffffffffffffffffffffffffffffffffffffffffffffffffffffffff1916817bffffffffffffffffffffffffffffffffffffffffffffffffffffffff1916149150506118b6565b600190505b949350505050565b606060405180602001604052806000815250905090565b60606118e082610de1565b61191f576040517f08c379a00000000000000000000000000000000000000000000000000000000081526004016119169061257c565b60405180910390fd5b60006119296118be565b905060008151116119495760405180602001604052806000815250611974565b806119538461198f565b6040516020016119649291906122d4565b6040516020818303038152906040525b915050919050565b600080823b905060008111915050919050565b606060008214156119d7576040518060400160405280600181526020017f30000000000000000000000000000000000000000000000000000000000000008152509050611b37565b600082905060005b60008214611a095780806119f290612895565b915050600a82611a029190612717565b91506119df565b60008167ffffffffffffffff811115611a4b577f4e487b7100000000000000000000000000000000000000000000000000000000600052604160045260246000fd5b6040519080825280601f01601f191660200182016040528015611a7d5781602001600182028036833780820191505090505b5090505b60008514611b3057600182611a969190612748565b9150600a85611aa591906128de565b6030611ab191906126c1565b60f81b818381518110611aed577f4e487b7100000000000000000000000000000000000000000000000000000000600052603260045260246000fd5b60200101907effffffffffffffffffffffffffffffffffffffffffffffffffffffffffffff1916908160001a905350600a85611b299190612717565b9450611a81565b8093505050505b919050565b828054611b4890612832565b90600052602060002090601f016020900481019282611b6a5760008555611bb1565b82601f10611b8357805160ff1916838001178555611bb1565b82800160010185558215611bb1579182015b82811115611bb0578251825591602001919060010190611b95565b5b509050611bbe9190611bc2565b5090565b5b80821115611bdb576000816000905550600101611bc3565b5090565b6000611bf2611bed8461261c565b6125f7565b905082815260208101848484011115611c0a57600080fd5b611c158482856127f0565b509392505050565b6000611c30611c2b8461264d565b6125f7565b905082815260208101848484011115611c4857600080fd5b611c538482856127f0565b509392505050565b600081359050611c6a81612ed2565b92915050565b600081359050611c7f81612ee9565b92915050565b600081359050611c9481612f00565b92915050565b600081519050611ca981612f00565b92915050565b600082601f830112611cc057600080fd5b8135611cd0848260208601611bdf565b91505092915050565b600082601f830112611cea57600080fd5b8135611cfa848260208601611c1d565b91505092915050565b600081359050611d1281612f17565b92915050565b600060208284031215611d2a57600080fd5b6000611d3884828501611c5b565b91505092915050565b60008060408385031215611d5457600080fd5b6000611d6285828601611c5b565b9250506020611d7385828601611c5b565b9150509250929050565b600080600060608486031215611d9257600080fd5b6000611da086828701611c5b565b9350506020611db186828701611c5b565b9250506040611dc286828701611d03565b9150509250925092565b60008060008060808587031215611de257600080fd5b6000611df087828801611c5b565b9450506020611e0187828801611c5b565b9350506040611e1287828801611d03565b925050606085013567ffffffffffffffff811115611e2f57600080fd5b611e3b87828801611caf565b91505092959194509250565b60008060408385031215611e5a57600080fd5b6000611e6885828601611c5b565b9250506020611e7985828601611c70565b9150509250929050565b60008060408385031215611e9657600080fd5b6000611ea485828601611c5b565b925050602083013567ffffffffffffffff811115611ec157600080fd5b611ecd85828601611cd9565b9150509250929050565b60008060408385031215611eea57600080fd5b6000611ef885828601611c5b565b9250506020611f0985828601611d03565b9150509250929050565b600060208284031215611f2557600080fd5b6000611f3384828501611c85565b91505092915050565b600060208284031215611f4e57600080fd5b6000611f5c84828501611c9a565b91505092915050565b600060208284031215611f7757600080fd5b6000611f8584828501611d03565b91505092915050565b611f978161277c565b82525050565b611fa68161278e565b82525050565b6000611fb78261267e565b611fc18185612694565b9350611fd18185602086016127ff565b611fda816129cb565b840191505092915050565b6000611ff082612689565b611ffa81856126a5565b935061200a8185602086016127ff565b612013816129cb565b840191505092915050565b600061202982612689565b61203381856126b6565b93506120438185602086016127ff565b80840191505092915050565b600061205c6032836126a5565b9150612067826129dc565b604082019050919050565b600061207f6026836126a5565b915061208a82612a2b565b604082019050919050565b60006120a2601c836126a5565b91506120ad82612a7a565b602082019050919050565b60006120c56024836126a5565b91506120d082612aa3565b604082019050919050565b60006120e86019836126a5565b91506120f382612af2565b602082019050919050565b600061210b602c836126a5565b915061211682612b1b565b604082019050919050565b600061212e6038836126a5565b915061213982612b6a565b604082019050919050565b6000612151602a836126a5565b915061215c82612bb9565b604082019050919050565b60006121746029836126a5565b915061217f82612c08565b604082019050919050565b6000612197602e836126a5565b91506121a282612c57565b604082019050919050565b60006121ba6020836126a5565b91506121c582612ca6565b602082019050919050565b60006121dd6031836126a5565b91506121e882612ccf565b604082019050919050565b6000612200602c836126a5565b915061220b82612d1e565b604082019050919050565b60006122236020836126a5565b915061222e82612d6d565b602082019050919050565b60006122466029836126a5565b915061225182612d96565b604082019050919050565b6000612269602f836126a5565b915061227482612de5565b604082019050919050565b600061228c6021836126a5565b915061229782612e34565b604082019050919050565b60006122af6031836126a5565b91506122ba82612e83565b604082019050919050565b6122ce816127e6565b82525050565b60006122e0828561201e565b91506122ec828461201e565b91508190509392505050565b600060208201905061230d6000830184611f8e565b92915050565b60006080820190506123286000830187611f8e565b6123356020830186611f8e565b61234260408301856122c5565b81810360608301526123548184611fac565b905095945050505050565b60006020820190506123746000830184611f9d565b92915050565b600060208201905081810360008301526123948184611fe5565b905092915050565b600060208201905081810360008301526123b58161204f565b9050919050565b600060208201905081810360008301526123d581612072565b9050919050565b600060208201905081810360008301526123f581612095565b9050919050565b60006020820190508181036000830152612415816120b8565b9050919050565b60006020820190508181036000830152612435816120db565b9050919050565b60006020820190508181036000830152612455816120fe565b9050919050565b6000602082019050818103600083015261247581612121565b9050919050565b6000602082019050818103600083015261249581612144565b9050919050565b600060208201905081810360008301526124b581612167565b9050919050565b600060208201905081810360008301526124d58161218a565b9050919050565b600060208201905081810360008301526124f5816121ad565b9050919050565b60006020820190508181036000830152612515816121d0565b9050919050565b60006020820190508181036000830152612535816121f3565b9050919050565b6000602082019050818103600083015261255581612216565b9050919050565b6000602082019050818103600083015261257581612239565b9050919050565b600060208201905081810360008301526125958161225c565b9050919050565b600060208201905081810360008301526125b58161227f565b9050919050565b600060208201905081810360008301526125d5816122a2565b9050919050565b60006020820190506125f160008301846122c5565b92915050565b6000612601612612565b905061260d8282612864565b919050565b6000604051905090565b600067ffffffffffffffff8211156126375761263661299c565b5b612640826129cb565b9050602081019050919050565b600067ffffffffffffffff8211156126685761266761299c565b5b612671826129cb565b9050602081019050919050565b600081519050919050565b600081519050919050565b600082825260208201905092915050565b600082825260208201905092915050565b600081905092915050565b60006126cc826127e6565b91506126d7836127e6565b9250827fffffffffffffffffffffffffffffffffffffffffffffffffffffffffffffffff0382111561270c5761270b61290f565b5b828201905092915050565b6000612722826127e6565b915061272d836127e6565b92508261273d5761273c61293e565b5b828204905092915050565b6000612753826127e6565b915061275e836127e6565b9250828210156127715761277061290f565b5b828203905092915050565b6000612787826127c6565b9050919050565b60008115159050919050565b60007fffffffff0000000000000000000000000000000000000000000000000000000082169050919050565b600073ffffffffffffffffffffffffffffffffffffffff82169050919050565b6000819050919050565b82818337600083830152505050565b60005b8381101561281d578082015181840152602081019050612802565b8381111561282c576000848401525b50505050565b6000600282049050600182168061284a57607f821691505b6020821081141561285e5761285d61296d565b5b50919050565b61286d826129cb565b810181811067ffffffffffffffff8211171561288c5761288b61299c565b5b80604052505050565b60006128a0826127e6565b91507fffffffffffffffffffffffffffffffffffffffffffffffffffffffffffffffff8214156128d3576128d261290f565b5b600182019050919050565b60006128e9826127e6565b91506128f4836127e6565b9250826129045761290361293e565b5b828206905092915050565b7f4e487b7100000000000000000000000000000000000000000000000000000000600052601160045260246000fd5b7f4e487b7100000000000000000000000000000000000000000000000000000000600052601260045260246000fd5b7f4e487b7100000000000000000000000000000000000000000000000000000000600052602260045260246000fd5b7f4e487b7100000000000000000000000000000000000000000000000000000000600052604160045260246000fd5b6000601f19601f8301169050919050565b7f4552433732313a207472616e7366657220746f206e6f6e20455243373231526560008201527f63656976657220696d706c656d656e7465720000000000000000000000000000602082015250565b7f4f776e61626c653a206e6577206f776e657220697320746865207a65726f206160008201527f6464726573730000000000000000000000000000000000000000000000000000602082015250565b7f4552433732313a20746f6b656e20616c7265616479206d696e74656400000000600082015250565b7f4552433732313a207472616e7366657220746f20746865207a65726f2061646460008201527f7265737300000000000000000000000000000000000000000000000000000000602082015250565b7f4552433732313a20617070726f766520746f2063616c6c657200000000000000600082015250565b7f4552433732313a206f70657261746f7220717565727920666f72206e6f6e657860008201527f697374656e7420746f6b656e0000000000000000000000000000000000000000602082015250565b7f4552433732313a20617070726f76652063616c6c6572206973206e6f74206f7760008201527f6e6572206e6f7220617070726f76656420666f7220616c6c0000000000000000602082015250565b7f4552433732313a2062616c616e636520717565727920666f7220746865207a6560008201527f726f206164647265737300000000000000000000000000000000000000000000602082015250565b7f4552433732313a206f776e657220717565727920666f72206e6f6e657869737460008201527f656e7420746f6b656e0000000000000000000000000000000000000000000000602082015250565b7f45524337323155524953746f726167653a2055524920736574206f66206e6f6e60008201527f6578697374656e7420746f6b656e000000000000000000000000000000000000602082015250565b7f4552433732313a206d696e7420746f20746865207a65726f2061646472657373600082015250565b7f45524337323155524953746f726167653a2055524920717565727920666f722060008201527f6e6f6e6578697374656e7420746f6b656e000000000000000000000000000000602082015250565b7f4552433732313a20617070726f76656420717565727920666f72206e6f6e657860008201527f697374656e7420746f6b656e0000000000000000000000000000000000000000602082015250565b7f4f776e61626c653a2063616c6c6572206973206e6f7420746865206f776e6572600082015250565b7f4552433732313a207472616e73666572206f6620746f6b656e2074686174206960008201527f73206e6f74206f776e0000000000000000000000000000000000000000000000602082015250565b7f4552433732314d657461646174613a2055524920717565727920666f72206e6f60008201527f6e6578697374656e7420746f6b656e0000000000000000000000000000000000602082015250565b7f4552433732313a20617070726f76616c20746f2063757272656e74206f776e6560008201527f7200000000000000000000000000000000000000000000000000000000000000602082015250565b7f4552433732313a207472616e736665722063616c6c6572206973206e6f74206f60008201527f776e6572206e6f7220617070726f766564000000000000000000000000000000602082015250565b612edb8161277c565b8114612ee657600080fd5b50565b612ef28161278e565b8114612efd57600080fd5b50565b612f098161279a565b8114612f1457600080fd5b50565b612f20816127e6565b8114612f2b57600080fd5b5056fea2646970667358221220d5f59f30f99d7b9245c647f56a57aa1eed6431d7cd3543dd3a038514073d825664736f6c63430008020033",
  "linkReferences": {},
  "deployedLinkReferences": {}
}